{
  "_format": "hh-sol-artifact-1",
  "contractName": "IGLPresale",
  "sourceName": "contracts/IGL.sol",
  "abi": [
    {
      "inputs": [
        {
          "internalType": "string",
          "name": "contractName",
          "type": "string"
        },
        {
          "internalType": "string",
          "name": "contractSymbol",
          "type": "string"
        },
        {
          "internalType": "address",
          "name": "_vault",
          "type": "address"
        },
        {
          "internalType": "address",
          "name": "_signer",
          "type": "address"
        },
        {
          "internalType": "string",
          "name": "__baseTokenURI",
          "type": "string"
        },
        {
          "internalType": "string",
          "name": "_hiddenMetadataUri",
          "type": "string"
        },
        {
          "internalType": "address[]",
          "name": "_payees",
          "type": "address[]"
        },
        {
          "internalType": "uint256[]",
          "name": "_shares",
          "type": "uint256[]"
        }
      ],
      "stateMutability": "payable",
      "type": "constructor"
    },
    {
      "anonymous": false,
      "inputs": [
        {
          "indexed": true,
          "internalType": "address",
          "name": "owner",
          "type": "address"
        },
        {
          "indexed": true,
          "internalType": "address",
          "name": "approved",
          "type": "address"
        },
        {
          "indexed": true,
          "internalType": "uint256",
          "name": "tokenId",
          "type": "uint256"
        }
      ],
      "name": "Approval",
      "type": "event"
    },
    {
      "anonymous": false,
      "inputs": [
        {
          "indexed": true,
          "internalType": "address",
          "name": "owner",
          "type": "address"
        },
        {
          "indexed": true,
          "internalType": "address",
          "name": "operator",
          "type": "address"
        },
        {
          "indexed": false,
          "internalType": "bool",
          "name": "approved",
          "type": "bool"
        }
      ],
      "name": "ApprovalForAll",
      "type": "event"
    },
    {
      "anonymous": false,
      "inputs": [
        {
          "indexed": true,
          "internalType": "contract IERC20",
          "name": "token",
          "type": "address"
        },
        {
          "indexed": false,
          "internalType": "address",
          "name": "to",
          "type": "address"
        },
        {
          "indexed": false,
          "internalType": "uint256",
          "name": "amount",
          "type": "uint256"
        }
      ],
      "name": "ERC20PaymentReleased",
      "type": "event"
    },
    {
      "anonymous": false,
      "inputs": [
        {
          "indexed": true,
          "internalType": "address",
          "name": "previousOwner",
          "type": "address"
        },
        {
          "indexed": true,
          "internalType": "address",
          "name": "newOwner",
          "type": "address"
        }
      ],
      "name": "OwnershipTransferred",
      "type": "event"
    },
    {
      "anonymous": false,
      "inputs": [
        {
          "indexed": false,
          "internalType": "address",
          "name": "account",
          "type": "address"
        },
        {
          "indexed": false,
          "internalType": "uint256",
          "name": "shares",
          "type": "uint256"
        }
      ],
      "name": "PayeeAdded",
      "type": "event"
    },
    {
      "anonymous": false,
      "inputs": [
        {
          "indexed": false,
          "internalType": "address",
          "name": "from",
          "type": "address"
        },
        {
          "indexed": false,
          "internalType": "uint256",
          "name": "amount",
          "type": "uint256"
        }
      ],
      "name": "PaymentReceived",
      "type": "event"
    },
    {
      "anonymous": false,
      "inputs": [
        {
          "indexed": false,
          "internalType": "address",
          "name": "to",
          "type": "address"
        },
        {
          "indexed": false,
          "internalType": "uint256",
          "name": "amount",
          "type": "uint256"
        }
      ],
      "name": "PaymentReleased",
      "type": "event"
    },
    {
      "anonymous": false,
      "inputs": [
        {
          "indexed": true,
          "internalType": "address",
          "name": "from",
          "type": "address"
        },
        {
          "indexed": true,
          "internalType": "address",
          "name": "to",
          "type": "address"
        },
        {
          "indexed": true,
          "internalType": "uint256",
          "name": "tokenId",
          "type": "uint256"
        }
      ],
      "name": "Transfer",
      "type": "event"
    },
    {
      "inputs": [],
      "name": "Author",
      "outputs": [
        {
          "internalType": "string",
          "name": "",
          "type": "string"
        }
      ],
      "stateMutability": "view",
      "type": "function"
    },
    {
      "inputs": [],
      "name": "MAX_TOKENS",
      "outputs": [
        {
          "internalType": "uint256",
          "name": "",
          "type": "uint256"
        }
      ],
      "stateMutability": "view",
      "type": "function"
    },
    {
      "inputs": [],
      "name": "ProjectTeam",
      "outputs": [
        {
          "internalType": "string",
          "name": "",
          "type": "string"
        }
      ],
      "stateMutability": "view",
      "type": "function"
    },
    {
      "inputs": [
        {
          "internalType": "address",
          "name": "to",
          "type": "address"
        },
        {
          "internalType": "uint256",
          "name": "tokenId",
          "type": "uint256"
        }
      ],
      "name": "approve",
      "outputs": [],
      "stateMutability": "nonpayable",
      "type": "function"
    },
    {
      "inputs": [
        {
          "internalType": "address",
          "name": "owner",
          "type": "address"
        }
      ],
      "name": "balanceOf",
      "outputs": [
        {
          "internalType": "uint256",
          "name": "",
          "type": "uint256"
        }
      ],
      "stateMutability": "view",
      "type": "function"
    },
    {
      "inputs": [],
      "name": "baseExtension",
      "outputs": [
        {
          "internalType": "string",
          "name": "",
          "type": "string"
        }
      ],
      "stateMutability": "view",
      "type": "function"
    },
    {
      "inputs": [
        {
          "internalType": "uint256",
          "name": "tokenId",
          "type": "uint256"
        }
      ],
      "name": "burn",
      "outputs": [],
      "stateMutability": "nonpayable",
      "type": "function"
    },
    {
      "inputs": [
        {
          "internalType": "address",
          "name": "",
          "type": "address"
        }
      ],
      "name": "claimedByOwner",
      "outputs": [
        {
          "internalType": "uint256",
          "name": "",
          "type": "uint256"
        }
      ],
      "stateMutability": "view",
      "type": "function"
    },
    {
      "inputs": [
        {
          "internalType": "uint256",
          "name": "tokenId",
          "type": "uint256"
        }
      ],
      "name": "getApproved",
      "outputs": [
        {
          "internalType": "address",
          "name": "",
          "type": "address"
        }
      ],
      "stateMutability": "view",
      "type": "function"
    },
    {
      "inputs": [],
      "name": "hiddenMetadataUri",
      "outputs": [
        {
          "internalType": "string",
          "name": "",
          "type": "string"
        }
      ],
      "stateMutability": "view",
      "type": "function"
    },
    {
      "inputs": [
        {
          "internalType": "address",
          "name": "owner",
          "type": "address"
        },
        {
          "internalType": "address",
          "name": "operator",
          "type": "address"
        }
      ],
      "name": "isApprovedForAll",
      "outputs": [
        {
          "internalType": "bool",
          "name": "",
          "type": "bool"
        }
      ],
      "stateMutability": "view",
      "type": "function"
    },
    {
      "inputs": [],
      "name": "maxWhitelistPassMints",
      "outputs": [
        {
          "internalType": "uint256",
          "name": "",
          "type": "uint256"
        }
      ],
      "stateMutability": "view",
      "type": "function"
    },
    {
      "inputs": [],
      "name": "name",
      "outputs": [
        {
          "internalType": "string",
          "name": "",
          "type": "string"
        }
      ],
      "stateMutability": "view",
      "type": "function"
    },
    {
      "inputs": [
        {
          "internalType": "uint256",
          "name": "quantity",
          "type": "uint256"
        }
      ],
      "name": "openMint",
      "outputs": [],
      "stateMutability": "payable",
      "type": "function"
    },
    {
      "inputs": [],
      "name": "owner",
      "outputs": [
        {
          "internalType": "address",
          "name": "",
          "type": "address"
        }
      ],
      "stateMutability": "view",
      "type": "function"
    },
    {
      "inputs": [
        {
          "internalType": "uint256",
          "name": "tokenId",
          "type": "uint256"
        }
      ],
      "name": "ownerOf",
      "outputs": [
        {
          "internalType": "address",
          "name": "",
          "type": "address"
        }
      ],
      "stateMutability": "view",
      "type": "function"
    },
    {
      "inputs": [
        {
          "internalType": "uint256",
          "name": "index",
          "type": "uint256"
        }
      ],
      "name": "payee",
      "outputs": [
        {
          "internalType": "address",
          "name": "",
          "type": "address"
        }
      ],
      "stateMutability": "view",
      "type": "function"
    },
    {
      "inputs": [],
      "name": "privateMintIsOpen",
      "outputs": [
        {
          "internalType": "bool",
          "name": "",
          "type": "bool"
        }
      ],
      "stateMutability": "view",
      "type": "function"
    },
    {
      "inputs": [],
      "name": "publicMintIsOpen",
      "outputs": [
        {
          "internalType": "bool",
          "name": "",
          "type": "bool"
        }
      ],
      "stateMutability": "view",
      "type": "function"
    },
    {
      "inputs": [],
      "name": "publicMintMaxLimit",
      "outputs": [
        {
          "internalType": "uint256",
          "name": "",
          "type": "uint256"
        }
      ],
      "stateMutability": "view",
      "type": "function"
    },
    {
      "inputs": [
        {
          "internalType": "address payable",
          "name": "account",
          "type": "address"
        }
      ],
      "name": "release",
      "outputs": [],
      "stateMutability": "nonpayable",
      "type": "function"
    },
    {
      "inputs": [
        {
          "internalType": "contract IERC20",
          "name": "token",
          "type": "address"
        },
        {
          "internalType": "address",
          "name": "account",
          "type": "address"
        }
      ],
      "name": "release",
      "outputs": [],
      "stateMutability": "nonpayable",
      "type": "function"
    },
    {
      "inputs": [
        {
          "internalType": "contract IERC20",
          "name": "token",
          "type": "address"
        },
        {
          "internalType": "address",
          "name": "account",
          "type": "address"
        }
      ],
      "name": "released",
      "outputs": [
        {
          "internalType": "uint256",
          "name": "",
          "type": "uint256"
        }
      ],
      "stateMutability": "view",
      "type": "function"
    },
    {
      "inputs": [
        {
          "internalType": "address",
          "name": "account",
          "type": "address"
        }
      ],
      "name": "released",
      "outputs": [
        {
          "internalType": "uint256",
          "name": "",
          "type": "uint256"
        }
      ],
      "stateMutability": "view",
      "type": "function"
    },
    {
      "inputs": [],
      "name": "renounceOwnership",
      "outputs": [],
      "stateMutability": "nonpayable",
      "type": "function"
    },
    {
      "inputs": [],
      "name": "revealed",
      "outputs": [
        {
          "internalType": "bool",
          "name": "",
          "type": "bool"
        }
      ],
      "stateMutability": "view",
      "type": "function"
    },
    {
      "inputs": [
        {
          "internalType": "address",
          "name": "from",
          "type": "address"
        },
        {
          "internalType": "address",
          "name": "to",
          "type": "address"
        },
        {
          "internalType": "uint256",
          "name": "tokenId",
          "type": "uint256"
        }
      ],
      "name": "safeTransferFrom",
      "outputs": [],
      "stateMutability": "nonpayable",
      "type": "function"
    },
    {
      "inputs": [
        {
          "internalType": "address",
          "name": "from",
          "type": "address"
        },
        {
          "internalType": "address",
          "name": "to",
          "type": "address"
        },
        {
          "internalType": "uint256",
          "name": "tokenId",
          "type": "uint256"
        },
        {
          "internalType": "bytes",
          "name": "_data",
          "type": "bytes"
        }
      ],
      "name": "safeTransferFrom",
      "outputs": [],
      "stateMutability": "nonpayable",
      "type": "function"
    },
    {
      "inputs": [
        {
          "internalType": "address",
          "name": "operator",
          "type": "address"
        },
        {
          "internalType": "bool",
          "name": "approved",
          "type": "bool"
        }
      ],
      "name": "setApprovalForAll",
      "outputs": [],
      "stateMutability": "nonpayable",
      "type": "function"
    },
    {
      "inputs": [
        {
          "internalType": "string",
          "name": "_baseExtension",
          "type": "string"
        }
      ],
      "name": "setBaseExtension",
      "outputs": [],
      "stateMutability": "nonpayable",
      "type": "function"
    },
    {
      "inputs": [
        {
          "internalType": "string",
          "name": "newBaseURI",
          "type": "string"
        }
      ],
      "name": "setBaseURI",
      "outputs": [],
      "stateMutability": "nonpayable",
      "type": "function"
    },
    {
      "inputs": [
        {
          "internalType": "uint256",
          "name": "amount",
          "type": "uint256"
        }
      ],
      "name": "setFreeMints",
      "outputs": [],
      "stateMutability": "nonpayable",
      "type": "function"
    },
    {
      "inputs": [
        {
          "internalType": "string",
          "name": "_hiddenMetadataUri",
          "type": "string"
        }
      ],
      "name": "setHiddenMetadataUri",
      "outputs": [],
      "stateMutability": "nonpayable",
      "type": "function"
    },
    {
      "inputs": [
        {
          "internalType": "uint256",
          "name": "newPrice",
          "type": "uint256"
        },
        {
          "internalType": "uint256",
          "name": "newWhitelistTokenPrice",
          "type": "uint256"
        },
        {
          "internalType": "uint256",
          "name": "setOpenMintLimit",
          "type": "uint256"
        },
        {
          "internalType": "uint256",
          "name": "setWhistlistPassMintLimit",
          "type": "uint256"
        },
        {
          "internalType": "bool",
          "name": "setPublicMintState",
          "type": "bool"
        },
        {
          "internalType": "bool",
          "name": "setPrivateMintState",
          "type": "bool"
        }
      ],
      "name": "setParams",
      "outputs": [],
      "stateMutability": "nonpayable",
      "type": "function"
    },
    {
      "inputs": [
        {
          "internalType": "bool",
          "name": "_state",
          "type": "bool"
        }
      ],
      "name": "setRevealed",
      "outputs": [],
      "stateMutability": "nonpayable",
      "type": "function"
    },
    {
      "inputs": [
        {
          "internalType": "address",
          "name": "newSigner",
          "type": "address"
        }
      ],
      "name": "setSignerAddress",
      "outputs": [],
      "stateMutability": "nonpayable",
      "type": "function"
    },
    {
      "inputs": [
        {
          "internalType": "uint256",
          "name": "newPrice",
          "type": "uint256"
        }
      ],
      "name": "setTokenPrice",
      "outputs": [],
      "stateMutability": "nonpayable",
      "type": "function"
    },
    {
      "inputs": [
        {
          "internalType": "uint256",
          "name": "newMintLimit",
          "type": "uint256"
        }
      ],
      "name": "setTransactionMintLimit",
      "outputs": [],
      "stateMutability": "nonpayable",
      "type": "function"
    },
    {
      "inputs": [
        {
          "internalType": "address",
          "name": "newVault",
          "type": "address"
        }
      ],
      "name": "setVaultAddress",
      "outputs": [],
      "stateMutability": "nonpayable",
      "type": "function"
    },
    {
      "inputs": [
        {
          "internalType": "uint256",
          "name": "newprivateMintLimit",
          "type": "uint256"
        }
      ],
      "name": "setWhitelistTransactionMintLimit",
      "outputs": [],
      "stateMutability": "nonpayable",
      "type": "function"
    },
    {
      "inputs": [
        {
          "internalType": "address",
          "name": "account",
          "type": "address"
        }
      ],
      "name": "shares",
      "outputs": [
        {
          "internalType": "uint256",
          "name": "",
          "type": "uint256"
        }
      ],
      "stateMutability": "view",
      "type": "function"
    },
    {
      "inputs": [
        {
          "internalType": "bytes4",
          "name": "interfaceId",
          "type": "bytes4"
        }
      ],
      "name": "supportsInterface",
      "outputs": [
        {
          "internalType": "bool",
          "name": "",
          "type": "bool"
        }
      ],
      "stateMutability": "view",
      "type": "function"
    },
    {
      "inputs": [],
      "name": "symbol",
      "outputs": [
        {
          "internalType": "string",
          "name": "",
          "type": "string"
        }
      ],
      "stateMutability": "view",
      "type": "function"
    },
    {
      "inputs": [
        {
          "internalType": "address",
          "name": "to",
          "type": "address"
        },
        {
          "internalType": "uint256",
          "name": "amount",
          "type": "uint256"
        }
      ],
      "name": "teamMint",
      "outputs": [],
      "stateMutability": "nonpayable",
      "type": "function"
    },
    {
      "inputs": [],
      "name": "togglePresaleMint",
      "outputs": [],
      "stateMutability": "nonpayable",
      "type": "function"
    },
    {
      "inputs": [],
      "name": "togglePublicMint",
      "outputs": [],
      "stateMutability": "nonpayable",
      "type": "function"
    },
    {
      "inputs": [],
      "name": "tokenPrice",
      "outputs": [
        {
          "internalType": "uint256",
          "name": "",
          "type": "uint256"
        }
      ],
      "stateMutability": "view",
      "type": "function"
    },
    {
      "inputs": [
        {
          "internalType": "uint256",
          "name": "_tokenId",
          "type": "uint256"
        }
      ],
      "name": "tokenURI",
      "outputs": [
        {
          "internalType": "string",
          "name": "",
          "type": "string"
        }
      ],
      "stateMutability": "view",
      "type": "function"
    },
    {
      "inputs": [
        {
          "internalType": "contract IERC20",
          "name": "token",
          "type": "address"
        }
      ],
      "name": "totalReleased",
      "outputs": [
        {
          "internalType": "uint256",
          "name": "",
          "type": "uint256"
        }
      ],
      "stateMutability": "view",
      "type": "function"
    },
    {
      "inputs": [],
      "name": "totalReleased",
      "outputs": [
        {
          "internalType": "uint256",
          "name": "",
          "type": "uint256"
        }
      ],
      "stateMutability": "view",
      "type": "function"
    },
    {
      "inputs": [],
      "name": "totalShares",
      "outputs": [
        {
          "internalType": "uint256",
          "name": "",
          "type": "uint256"
        }
      ],
      "stateMutability": "view",
      "type": "function"
    },
    {
      "inputs": [],
      "name": "totalSupply",
      "outputs": [
        {
          "internalType": "uint256",
          "name": "",
          "type": "uint256"
        }
      ],
      "stateMutability": "view",
      "type": "function"
    },
    {
      "inputs": [
        {
          "internalType": "address",
          "name": "from",
          "type": "address"
        },
        {
          "internalType": "address",
          "name": "to",
          "type": "address"
        },
        {
          "internalType": "uint256",
          "name": "tokenId",
          "type": "uint256"
        }
      ],
      "name": "transferFrom",
      "outputs": [],
      "stateMutability": "nonpayable",
      "type": "function"
    },
    {
      "inputs": [
        {
          "internalType": "address",
          "name": "newOwner",
          "type": "address"
        }
      ],
      "name": "transferOwnership",
      "outputs": [],
      "stateMutability": "nonpayable",
      "type": "function"
    },
    {
      "inputs": [
        {
          "internalType": "uint8",
          "name": "quantity",
          "type": "uint8"
        },
        {
          "internalType": "uint8",
          "name": "claimable",
          "type": "uint8"
        },
        {
          "components": [
            {
              "internalType": "bytes32",
              "name": "r",
              "type": "bytes32"
            },
            {
              "internalType": "bytes32",
              "name": "s",
              "type": "bytes32"
            },
            {
              "internalType": "uint8",
              "name": "v",
              "type": "uint8"
            }
          ],
          "internalType": "struct IGLPresale.WhitelistClaimPass",
          "name": "whitelistClaimPass",
          "type": "tuple"
        }
      ],
      "name": "whitelistClaimMint",
      "outputs": [],
      "stateMutability": "payable",
      "type": "function"
    },
    {
      "inputs": [],
      "name": "whitelistMintMaxLimit",
      "outputs": [
        {
          "internalType": "uint256",
          "name": "",
          "type": "uint256"
        }
      ],
      "stateMutability": "view",
      "type": "function"
    },
    {
      "inputs": [],
      "name": "whitelistTokenPrice",
      "outputs": [
        {
          "internalType": "uint256",
          "name": "",
          "type": "uint256"
        }
      ],
      "stateMutability": "view",
      "type": "function"
    },
    {
      "inputs": [],
      "name": "withdraw",
      "outputs": [],
      "stateMutability": "nonpayable",
      "type": "function"
    },
    {
      "stateMutability": "payable",
      "type": "receive"
    }
  ],
  "bytecode": "0x600160118190556012556000601381905560145560326015556016805462ffffff191661010017905560c06040526005608081905264173539b7b760d91b60a09081526200005191601891906200089d565b50601a80546001600160a01b0319908116909155601b8054909116905560408051808201909152600c8082526b0e8cac6d0dee6d0d25ccae8d60a31b6020909201918252620000a391601e916200089d565b50604080518082019091526008808252676e667470756d707360c01b6020909201918252620000d591601f916200089d565b5060405162004cf338038062004cf3833981016040819052620000f89162000b4c565b81818989620001073362000311565b81516200011c9060019060208501906200089d565b508051620001329060029060208401906200089d565b5050508051825114620001a75760405162461bcd60e51b815260206004820152603260248201527f5061796d656e7453706c69747465723a2070617965657320616e6420736861726044820152710cae640d8cadccee8d040dad2e6dac2e8c6d60731b60648201526084015b60405180910390fd5b6000825111620001fa5760405162461bcd60e51b815260206004820152601a60248201527f5061796d656e7453706c69747465723a206e6f2070617965657300000000000060448201526064016200019e565b60005b825181101562000266576200025183828151811062000220576200022062000c7a565b60200260200101518383815181106200023d576200023d62000c7a565b60200260200101516200036160201b60201c565b806200025d8162000ca6565b915050620001fd565b5050601a80546001600160a01b03199081166001600160a01b038a811691909117909255601b805490911691881691909117905550620002b3600f6200054f602090811b6200278717901c565b620002ca600f6200054f60201b620027871760201c565b620002d733600162000558565b8351620002ec9060179060208701906200089d565b508251620003029060199060208601906200089d565b50505050505050505062000da5565b600080546001600160a01b038381166001600160a01b0319831681178455604051919092169283917f8be0079c531659141344cd1fd0a4f28419497f9722a3daafe3b4186f6b6457e09190a35050565b6001600160a01b038216620003ce5760405162461bcd60e51b815260206004820152602c60248201527f5061796d656e7453706c69747465723a206163636f756e74206973207468652060448201526b7a65726f206164647265737360a01b60648201526084016200019e565b60008111620004205760405162461bcd60e51b815260206004820152601d60248201527f5061796d656e7453706c69747465723a2073686172657320617265203000000060448201526064016200019e565b6001600160a01b0382166000908152600a6020526040902054156200049c5760405162461bcd60e51b815260206004820152602b60248201527f5061796d656e7453706c69747465723a206163636f756e7420616c726561647960448201526a206861732073686172657360a81b60648201526084016200019e565b600c8054600181019091557fdf6966c971051c3d54ec59162606531493a51404a002842f56009d7e5cf4a8c70180546001600160a01b0319166001600160a01b0384169081179091556000908152600a602052604090208190556008546200050690829062000cc4565b600855604080516001600160a01b0384168152602081018390527f40c340f65e17194d14ddddb073d3c9f888e3cb52b5aae0c6c7706b4fbc905fac910160405180910390a15050565b80546001019055565b6200057a8282604051806020016040528060008152506200057e60201b60201c565b5050565b6200058a8383620005f6565b6200059960008484846200073e565b620005f15760405162461bcd60e51b8152602060048201526032602482015260008051602062004cd383398151915260448201527131b2b4bb32b91034b6b83632b6b2b73a32b960711b60648201526084016200019e565b505050565b6001600160a01b0382166200064e5760405162461bcd60e51b815260206004820181905260248201527f4552433732313a206d696e7420746f20746865207a65726f206164647265737360448201526064016200019e565b6000818152600360205260409020546001600160a01b031615620006b55760405162461bcd60e51b815260206004820152601c60248201527f4552433732313a20746f6b656e20616c7265616479206d696e7465640000000060448201526064016200019e565b6001600160a01b0382166000908152600460205260408120805460019290620006e090849062000cc4565b909155505060008181526003602052604080822080546001600160a01b0319166001600160a01b03861690811790915590518392907fddf252ad1be2c89b69c2b068fc378daa952ba7f163c4a11628f55a4df523b3ef908290a45050565b60006200075f846001600160a01b03166200089760201b620027901760201c565b156200088b57604051630a85bd0160e11b81526001600160a01b0385169063150b7a02906200079990339089908890889060040162000cdf565b6020604051808303816000875af1925050508015620007d7575060408051601f3d908101601f19168201909252620007d49181019062000d35565b60015b62000870573d80801562000808576040519150601f19603f3d011682016040523d82523d6000602084013e6200080d565b606091505b508051620008685760405162461bcd60e51b8152602060048201526032602482015260008051602062004cd383398151915260448201527131b2b4bb32b91034b6b83632b6b2b73a32b960711b60648201526084016200019e565b805181602001fd5b6001600160e01b031916630a85bd0160e11b1490506200088f565b5060015b949350505050565b3b151590565b828054620008ab9062000d68565b90600052602060002090601f016020900481019282620008cf57600085556200091a565b82601f10620008ea57805160ff19168380011785556200091a565b828001600101855582156200091a579182015b828111156200091a578251825591602001919060010190620008fd565b50620009289291506200092c565b5090565b5b808211156200092857600081556001016200092d565b634e487b7160e01b600052604160045260246000fd5b604051601f8201601f191681016001600160401b038111828210171562000984576200098462000943565b604052919050565b60005b83811015620009a95781810151838201526020016200098f565b83811115620009b9576000848401525b50505050565b600082601f830112620009d157600080fd5b81516001600160401b03811115620009ed57620009ed62000943565b62000a02601f8201601f191660200162000959565b81815284602083860101111562000a1857600080fd5b6200088f8260208301602087016200098c565b80516001600160a01b038116811462000a4357600080fd5b919050565b60006001600160401b0382111562000a645762000a6462000943565b5060051b60200190565b600082601f83011262000a8057600080fd5b8151602062000a9962000a938362000a48565b62000959565b82815260059290921b8401810191818101908684111562000ab957600080fd5b8286015b8481101562000adf5762000ad18162000a2b565b835291830191830162000abd565b509695505050505050565b600082601f83011262000afc57600080fd5b8151602062000b0f62000a938362000a48565b82815260059290921b8401810191818101908684111562000b2f57600080fd5b8286015b8481101562000adf578051835291830191830162000b33565b600080600080600080600080610100898b03121562000b6a57600080fd5b88516001600160401b038082111562000b8257600080fd5b62000b908c838d01620009bf565b995060208b015191508082111562000ba757600080fd5b62000bb58c838d01620009bf565b985062000bc560408c0162000a2b565b975062000bd560608c0162000a2b565b965060808b015191508082111562000bec57600080fd5b62000bfa8c838d01620009bf565b955060a08b015191508082111562000c1157600080fd5b62000c1f8c838d01620009bf565b945060c08b015191508082111562000c3657600080fd5b62000c448c838d0162000a6e565b935060e08b015191508082111562000c5b57600080fd5b5062000c6a8b828c0162000aea565b9150509295985092959890939650565b634e487b7160e01b600052603260045260246000fd5b634e487b7160e01b600052601160045260246000fd5b600060001982141562000cbd5762000cbd62000c90565b5060010190565b6000821982111562000cda5762000cda62000c90565b500190565b600060018060a01b03808716835280861660208401525083604083015260806060830152825180608084015262000d1e8160a08501602087016200098c565b601f01601f19169190910160a00195945050505050565b60006020828403121562000d4857600080fd5b81516001600160e01b03198116811462000d6157600080fd5b9392505050565b600181811c9082168062000d7d57607f821691505b6020821081141562000d9f57634e487b7160e01b600052602260045260246000fd5b50919050565b613f1e8062000db56000396000f3fe6080604052600436106103855760003560e01c80637ff9b596116101d1578063ce7c2ac211610102578063e7db8fb0116100a0578063f2fde38b1161006f578063f2fde38b14610aa1578063f47c84c514610ac1578063fa468ead14610ad7578063fe471ed514610aed57600080fd5b8063e7db8fb014610a04578063e985e9c514610a24578063ed4dcde614610a6d578063ee28de5214610a8257600080fd5b8063da3ef23f116100dc578063da3ef23f14610999578063e0a80853146109b9578063e33b7de3146109d9578063e4a42551146109ee57600080fd5b8063ce7c2ac214610917578063d25f40471461094d578063d79779b21461096357600080fd5b8063a15d60c51161016f578063add5a4fa11610149578063add5a4fa146108a2578063b88d4fde146108c2578063c6682862146108e2578063c87b56dd146108f757600080fd5b8063a15d60c514610853578063a22cb4651461086d578063a45ba8e71461088d57600080fd5b80638da5cb5b116101ab5780638da5cb5b146107d757806395d89b41146107f55780639852595c1461080a578063a02d1d5a1461084057600080fd5b80637ff9b5961461078157806385535cc5146107975780638b83209b146107b757600080fd5b80633a98ef39116102b657806348b75044116102545780636352211e116102235780636352211e1461070c5780636a61e5fc1461072c57806370a082311461074c578063715018a61461076c57600080fd5b806348b750441461068c5780634fdd43cb146106ac57806351830227146106cc57806355f804b3146106ec57600080fd5b8063406072a911610290578063406072a9146105f357806342842e0e146106395780634287084f1461065957806342966c681461066c57600080fd5b80633a98ef39146105b45780633ccfd60b146105c95780634047638d146105de57600080fd5b80630f1e68281161032357806320b2af52116102fd57806320b2af521461055457806323b872dd146105695780632cb15fd314610589578063353f849e1461059f57600080fd5b80630f1e6828146104ff57806318160ddd1461051f578063191655871461053457600080fd5b806306fdde031161035f57806306fdde0314610465578063081812fc14610487578063095ea7b3146104bf5780630d738aeb146104df57600080fd5b806301ffc9a7146103d3578063046dc1661461040857806305b008621461042a57600080fd5b366103ce577f6ef95f06320e7a25a04a175ca677b7052bdd97131872c2192525a629f51be77033604080516001600160a01b0390921682523460208301520160405180910390a1005b600080fd5b3480156103df57600080fd5b506103f36103ee36600461381d565b610b0d565b60405190151581526020015b60405180910390f35b34801561041457600080fd5b5061042861042336600461384f565b610bf2565b005b34801561043657600080fd5b5061045761044536600461384f565b601d6020526000908152604090205481565b6040519081526020016103ff565b34801561047157600080fd5b5061047a610c80565b6040516103ff91906138c4565b34801561049357600080fd5b506104a76104a23660046138d7565b610d12565b6040516001600160a01b0390911681526020016103ff565b3480156104cb57600080fd5b506104286104da3660046138f0565b610db8565b3480156104eb57600080fd5b506104286104fa3660046138d7565b610eea565b34801561050b57600080fd5b5061042861051a3660046138d7565b610f49565b34801561052b57600080fd5b50610457610fa8565b34801561054057600080fd5b5061042861054f36600461384f565b610fc4565b34801561056057600080fd5b5061047a61119e565b34801561057557600080fd5b5061042861058436600461391c565b61122c565b34801561059557600080fd5b5061045760155481565b3480156105ab57600080fd5b5061047a6112b3565b3480156105c057600080fd5b50600854610457565b3480156105d557600080fd5b506104286112c0565b3480156105ea57600080fd5b50610428611356565b3480156105ff57600080fd5b5061045761060e36600461395d565b6001600160a01b039182166000908152600e6020908152604080832093909416825291909152205490565b34801561064557600080fd5b5061042861065436600461391c565b6113c4565b6104286106673660046138d7565b6113df565b34801561067857600080fd5b506104286106873660046138d7565b611597565b34801561069857600080fd5b506104286106a736600461395d565b6115fa565b3480156106b857600080fd5b506104286106c7366004613a22565b611898565b3480156106d857600080fd5b506016546103f39062010000900460ff1681565b3480156106f857600080fd5b50610428610707366004613a22565b611909565b34801561071857600080fd5b506104a76107273660046138d7565b611976565b34801561073857600080fd5b506104286107473660046138d7565b611a01565b34801561075857600080fd5b5061045761076736600461384f565b611a60565b34801561077857600080fd5b50610428611afa565b34801561078d57600080fd5b5061045760135481565b3480156107a357600080fd5b506104286107b236600461384f565b611b60565b3480156107c357600080fd5b506104a76107d23660046138d7565b611be9565b3480156107e357600080fd5b506000546001600160a01b03166104a7565b34801561080157600080fd5b5061047a611c19565b34801561081657600080fd5b5061045761082536600461384f565b6001600160a01b03166000908152600b602052604090205490565b61042861084e366004613a81565b611c28565b34801561085f57600080fd5b506016546103f39060ff1681565b34801561087957600080fd5b50610428610888366004613b42565b612089565b34801561089957600080fd5b5061047a612094565b3480156108ae57600080fd5b506104286108bd3660046138f0565b6120a1565b3480156108ce57600080fd5b506104286108dd366004613b70565b6121ae565b3480156108ee57600080fd5b5061047a612236565b34801561090357600080fd5b5061047a6109123660046138d7565b612243565b34801561092357600080fd5b5061045761093236600461384f565b6001600160a01b03166000908152600a602052604090205490565b34801561095957600080fd5b5061045760115481565b34801561096f57600080fd5b5061045761097e36600461384f565b6001600160a01b03166000908152600d602052604090205490565b3480156109a557600080fd5b506104286109b4366004613a22565b6123d1565b3480156109c557600080fd5b506104286109d4366004613bf0565b61243e565b3480156109e557600080fd5b50600954610457565b3480156109fa57600080fd5b5061045760125481565b348015610a1057600080fd5b50610428610a1f3660046138d7565b6124d0565b348015610a3057600080fd5b506103f3610a3f36600461395d565b6001600160a01b03918216600090815260066020908152604080832093909416825291909152205460ff1690565b348015610a7957600080fd5b50610428612581565b348015610a8e57600080fd5b506016546103f390610100900460ff1681565b348015610aad57600080fd5b50610428610abc36600461384f565b6125f8565b348015610acd57600080fd5b50610457610dac81565b348015610ae357600080fd5b5061045760145481565b348015610af957600080fd5b50610428610b08366004613c0d565b6126d7565b60007fffffffff0000000000000000000000000000000000000000000000000000000082167f80ac58cd000000000000000000000000000000000000000000000000000000001480610ba057507fffffffff0000000000000000000000000000000000000000000000000000000082167f5b5e139f00000000000000000000000000000000000000000000000000000000145b80610bec57507f01ffc9a7000000000000000000000000000000000000000000000000000000007fffffffff000000000000000000000000000000000000000000000000000000008316145b92915050565b6000546001600160a01b03163314610c515760405162461bcd60e51b815260206004820181905260248201527f4f776e61626c653a2063616c6c6572206973206e6f7420746865206f776e657260448201526064015b60405180910390fd5b601b805473ffffffffffffffffffffffffffffffffffffffff19166001600160a01b0392909216919091179055565b606060018054610c8f90613c6b565b80601f0160208091040260200160405190810160405280929190818152602001828054610cbb90613c6b565b8015610d085780601f10610cdd57610100808354040283529160200191610d08565b820191906000526020600020905b815481529060010190602001808311610ceb57829003601f168201915b5050505050905090565b6000818152600360205260408120546001600160a01b0316610d9c5760405162461bcd60e51b815260206004820152602c60248201527f4552433732313a20617070726f76656420717565727920666f72206e6f6e657860448201527f697374656e7420746f6b656e00000000000000000000000000000000000000006064820152608401610c48565b506000908152600560205260409020546001600160a01b031690565b6000610dc382611976565b9050806001600160a01b0316836001600160a01b03161415610e4d5760405162461bcd60e51b815260206004820152602160248201527f4552433732313a20617070726f76616c20746f2063757272656e74206f776e6560448201527f72000000000000000000000000000000000000000000000000000000000000006064820152608401610c48565b336001600160a01b0382161480610e695750610e698133610a3f565b610edb5760405162461bcd60e51b815260206004820152603860248201527f4552433732313a20617070726f76652063616c6c6572206973206e6f74206f7760448201527f6e6572206e6f7220617070726f76656420666f7220616c6c00000000000000006064820152608401610c48565b610ee58383612796565b505050565b6000546001600160a01b03163314610f445760405162461bcd60e51b815260206004820181905260248201527f4f776e61626c653a2063616c6c6572206973206e6f7420746865206f776e65726044820152606401610c48565b601255565b6000546001600160a01b03163314610fa35760405162461bcd60e51b815260206004820181905260248201527f4f776e61626c653a2063616c6c6572206973206e6f7420746865206f776e65726044820152606401610c48565b601155565b60006001610fb5600f5490565b610fbf9190613cbc565b905090565b6001600160a01b0381166000908152600a602052604090205461104f5760405162461bcd60e51b815260206004820152602660248201527f5061796d656e7453706c69747465723a206163636f756e7420686173206e6f2060448201527f73686172657300000000000000000000000000000000000000000000000000006064820152608401610c48565b600061105a60095490565b6110649047613cd3565b90506000611091838361108c866001600160a01b03166000908152600b602052604090205490565b612811565b9050806111065760405162461bcd60e51b815260206004820152602b60248201527f5061796d656e7453706c69747465723a206163636f756e74206973206e6f742060448201527f647565207061796d656e740000000000000000000000000000000000000000006064820152608401610c48565b6001600160a01b0383166000908152600b60205260408120805483929061112e908490613cd3565b9250508190555080600960008282546111479190613cd3565b9091555061115790508382612857565b604080516001600160a01b0385168152602081018390527fdf20fd1e76bc69d672e4814fafb2c449bba3a5369d8359adf9e05e6fde87b056910160405180910390a1505050565b601e80546111ab90613c6b565b80601f01602080910402602001604051908101604052809291908181526020018280546111d790613c6b565b80156112245780601f106111f957610100808354040283529160200191611224565b820191906000526020600020905b81548152906001019060200180831161120757829003601f168201915b505050505081565b6112363382612970565b6112a85760405162461bcd60e51b815260206004820152603160248201527f4552433732313a207472616e736665722063616c6c6572206973206e6f74206f60448201527f776e6572206e6f7220617070726f7665640000000000000000000000000000006064820152608401610c48565b610ee5838383612a77565b601f80546111ab90613c6b565b6000546001600160a01b0316331461131a5760405162461bcd60e51b815260206004820181905260248201527f4f776e61626c653a2063616c6c6572206973206e6f7420746865206f776e65726044820152606401610c48565b601a546040516001600160a01b03909116904780156108fc02916000818181858888f19350505050158015611353573d6000803e3d6000fd5b50565b6000546001600160a01b031633146113b05760405162461bcd60e51b815260206004820181905260248201527f4f776e61626c653a2063616c6c6572206973206e6f7420746865206f776e65726044820152606401610c48565b6016805460ff19811660ff90911615179055565b610ee5838383604051806020016040528060008152506121ae565b34816013546113ee9190613ceb565b111561143c5760405162461bcd60e51b815260206004820152601560248201527f4e6f7420656e6f7567682065746865722073656e7400000000000000000000006044820152606401610c48565b6000611447600f5490565b60165490915060ff1615156001146114a15760405162461bcd60e51b815260206004820152601260248201527f5075626c6963204d696e7420436c6f73656400000000000000000000000000006044820152606401610c48565b6011548211156114f35760405162461bcd60e51b815260206004820152601560248201527f4d696e7420616d6f756e7420746f6f206c6172676500000000000000000000006044820152606401610c48565b610dac611501600183613cbc565b61150b9084613cd3565b11156115595760405162461bcd60e51b815260206004820152601b60248201527f4e6f7420656e6f75676820746f6b656e732072656d61696e696e6700000000006044820152606401610c48565b60005b82811015610ee557611572600f80546001019055565b611585336115808385613cd3565b612c51565b8061158f81613d0a565b91505061155c565b6000546001600160a01b031633146115f15760405162461bcd60e51b815260206004820181905260248201527f4f776e61626c653a2063616c6c6572206973206e6f7420746865206f776e65726044820152606401610c48565b61135381612c6b565b6001600160a01b0381166000908152600a60205260409020546116855760405162461bcd60e51b815260206004820152602660248201527f5061796d656e7453706c69747465723a206163636f756e7420686173206e6f2060448201527f73686172657300000000000000000000000000000000000000000000000000006064820152608401610c48565b6001600160a01b0382166000908152600d60205260408120546040517f70a082310000000000000000000000000000000000000000000000000000000081523060048201526001600160a01b038516906370a0823190602401602060405180830381865afa1580156116fb573d6000803e3d6000fd5b505050506040513d601f19601f8201168201806040525081019061171f9190613d25565b6117299190613cd3565b90506000611762838361108c87876001600160a01b039182166000908152600e6020908152604080832093909416825291909152205490565b9050806117d75760405162461bcd60e51b815260206004820152602b60248201527f5061796d656e7453706c69747465723a206163636f756e74206973206e6f742060448201527f647565207061796d656e740000000000000000000000000000000000000000006064820152608401610c48565b6001600160a01b038085166000908152600e602090815260408083209387168352929052908120805483929061180e908490613cd3565b90915550506001600160a01b0384166000908152600d60205260408120805483929061183b908490613cd3565b9091555061184c9050848483612c74565b604080516001600160a01b038581168252602082018490528616917f3be5b7a71e84ed12875d241991c70855ac5817d847039e17a9d895c1ceb0f18a910160405180910390a250505050565b6000546001600160a01b031633146118f25760405162461bcd60e51b815260206004820181905260248201527f4f776e61626c653a2063616c6c6572206973206e6f7420746865206f776e65726044820152606401610c48565b8051611905906019906020840190613720565b5050565b6000546001600160a01b031633146119635760405162461bcd60e51b815260206004820181905260248201527f4f776e61626c653a2063616c6c6572206973206e6f7420746865206f776e65726044820152606401610c48565b8051611905906017906020840190613720565b6000818152600360205260408120546001600160a01b031680610bec5760405162461bcd60e51b815260206004820152602960248201527f4552433732313a206f776e657220717565727920666f72206e6f6e657869737460448201527f656e7420746f6b656e00000000000000000000000000000000000000000000006064820152608401610c48565b6000546001600160a01b03163314611a5b5760405162461bcd60e51b815260206004820181905260248201527f4f776e61626c653a2063616c6c6572206973206e6f7420746865206f776e65726044820152606401610c48565b601355565b60006001600160a01b038216611ade5760405162461bcd60e51b815260206004820152602a60248201527f4552433732313a2062616c616e636520717565727920666f7220746865207a6560448201527f726f2061646472657373000000000000000000000000000000000000000000006064820152608401610c48565b506001600160a01b031660009081526004602052604090205490565b6000546001600160a01b03163314611b545760405162461bcd60e51b815260206004820181905260248201527f4f776e61626c653a2063616c6c6572206973206e6f7420746865206f776e65726044820152606401610c48565b611b5e6000612cf4565b565b6000546001600160a01b03163314611bba5760405162461bcd60e51b815260206004820181905260248201527f4f776e61626c653a2063616c6c6572206973206e6f7420746865206f776e65726044820152606401610c48565b601a805473ffffffffffffffffffffffffffffffffffffffff19166001600160a01b0392909216919091179055565b6000600c8281548110611bfe57611bfe613d3e565b6000918252602090912001546001600160a01b031692915050565b606060028054610c8f90613c6b565b6040805160ff85166020820152339181019190915283908390839060009060600160408051601f198184030181529181528151602092830120336000908152601d90935291205490915060ff80851691611c8491871690613cd3565b1115611cd25760405162461bcd60e51b815260206004820181905260248201527f43616e2774206d696e74206f7665722074686520636c61696d206c696d6974216044820152606401610c48565b611cdc8183612d51565b611d285760405162461bcd60e51b815260206004820152600c60248201527f496e76616c6964205061737300000000000000000000000000000000000000006044820152606401610c48565b348760ff16601454611d3a9190613ceb565b1115611d885760405162461bcd60e51b815260206004820152601560248201527f4e6f7420656e6f7567682065746865722073656e7400000000000000000000006044820152606401610c48565b6000611d93600f5490565b60165490915060ff610100909104161515600114611df35760405162461bcd60e51b815260206004820152601160248201527f436c61696d204d696e7420436c6f7365640000000000000000000000000000006044820152606401610c48565b610dac611e01600183613cbc565b611e0e9060ff8b16613cd3565b1115611e5c5760405162461bcd60e51b815260206004820152601b60248201527f4e6f7420656e6f75676820746f6b656e732072656d61696e696e6700000000006044820152606401610c48565b8660ff168860ff161115611ed85760405162461bcd60e51b815260206004820152602d60248201527f4d696e74207175616e746974792063616e27742062652067726561746572207460448201527f68616e20636c61696d61626c65000000000000000000000000000000000000006064820152608401610c48565b60008860ff1611611f515760405162461bcd60e51b815260206004820152602760248201527f4d696e74207175616e74697479206d757374206265206772656174657220746860448201527f616e207a65726f000000000000000000000000000000000000000000000000006064820152608401610c48565b6012548860ff161115611fa65760405162461bcd60e51b815260206004820152601760248201527f4d696e74207175616e7469747920746f6f206c617267650000000000000000006044820152606401610c48565b6015548860ff16611fb660105490565b611fc09190613cd3565b111561200e5760405162461bcd60e51b815260206004820152601f60248201527f4e6f7420656e6f7567682066726565206d696e74732072656d61696e696e67006044820152606401610c48565b60005b8860ff1681101561207e5761202a600f80546001019055565b612038601080546001019055565b612046336115808385613cd3565b336000908152601d60205260408120805460019290612066908490613cd3565b9091555081905061207681613d0a565b915050612011565b505050505050505050565b611905338383612e39565b601980546111ab90613c6b565b6000546001600160a01b031633146120fb5760405162461bcd60e51b815260206004820181905260248201527f4f776e61626c653a2063616c6c6572206973206e6f7420746865206f776e65726044820152606401610c48565b6000612106600f5490565b9050610dac82612117600184613cbc565b6121219190613cd3565b111561216f5760405162461bcd60e51b815260206004820152601b60248201527f4e6f7420656e6f75676820746f6b656e732072656d61696e696e6700000000006044820152606401610c48565b60005b828110156121a857612188600f80546001019055565b612196846115808385613cd3565b806121a081613d0a565b915050612172565b50505050565b6121b83383612970565b61222a5760405162461bcd60e51b815260206004820152603160248201527f4552433732313a207472616e736665722063616c6c6572206973206e6f74206f60448201527f776e6572206e6f7220617070726f7665640000000000000000000000000000006064820152608401610c48565b6121a884848484612f08565b601880546111ab90613c6b565b6000818152600360205260409020546060906001600160a01b03166122d05760405162461bcd60e51b815260206004820152602f60248201527f4552433732314d657461646174613a2055524920717565727920666f72206e6f60448201527f6e6578697374656e7420746f6b656e00000000000000000000000000000000006064820152608401610c48565b60165462010000900460ff1661237257601980546122ed90613c6b565b80601f016020809104026020016040519081016040528092919081815260200182805461231990613c6b565b80156123665780601f1061233b57610100808354040283529160200191612366565b820191906000526020600020905b81548152906001019060200180831161234957829003601f168201915b50505050509050919050565b600061237c612f91565b9050600081511161239c57604051806020016040528060008152506123ca565b806123a684612fa0565b60186040516020016123ba93929190613d54565b6040516020818303038152906040525b9392505050565b6000546001600160a01b0316331461242b5760405162461bcd60e51b815260206004820181905260248201527f4f776e61626c653a2063616c6c6572206973206e6f7420746865206f776e65726044820152606401610c48565b8051611905906018906020840190613720565b6000546001600160a01b031633146124985760405162461bcd60e51b815260206004820181905260248201527f4f776e61626c653a2063616c6c6572206973206e6f7420746865206f776e65726044820152606401610c48565b6016805491151562010000027fffffffffffffffffffffffffffffffffffffffffffffffffffffffffff00ffff909216919091179055565b6000546001600160a01b0316331461252a5760405162461bcd60e51b815260206004820181905260248201527f4f776e61626c653a2063616c6c6572206973206e6f7420746865206f776e65726044820152606401610c48565b610dac81111561257c5760405162461bcd60e51b815260206004820152601a60248201527f46726565206d696e7420616d6f756e7420746f6f206c617267650000000000006044820152606401610c48565b601555565b6000546001600160a01b031633146125db5760405162461bcd60e51b815260206004820181905260248201527f4f776e61626c653a2063616c6c6572206973206e6f7420746865206f776e65726044820152606401610c48565b6016805461ff001981166101009182900460ff1615909102179055565b6000546001600160a01b031633146126525760405162461bcd60e51b815260206004820181905260248201527f4f776e61626c653a2063616c6c6572206973206e6f7420746865206f776e65726044820152606401610c48565b6001600160a01b0381166126ce5760405162461bcd60e51b815260206004820152602660248201527f4f776e61626c653a206e6577206f776e657220697320746865207a65726f206160448201527f64647265737300000000000000000000000000000000000000000000000000006064820152608401610c48565b61135381612cf4565b6000546001600160a01b031633146127315760405162461bcd60e51b815260206004820181905260248201527f4f776e61626c653a2063616c6c6572206973206e6f7420746865206f776e65726044820152606401610c48565b601494909455601394909455601191909155601255601680547fffffffffffffffffffffffffffffffffffffffffffffffffffffffffffff00001692151561ff0019169290921761010091151591909102179055565b80546001019055565b3b151590565b6000818152600560205260409020805473ffffffffffffffffffffffffffffffffffffffff19166001600160a01b03841690811790915581906127d882611976565b6001600160a01b03167f8c5be1e5ebec7d5bd14f71427d1e84f3dd0314c0f7b2291e5b200ac8c7c3b92560405160405180910390a45050565b6008546001600160a01b0384166000908152600a60205260408120549091839161283b9086613ceb565b6128459190613e2e565b61284f9190613cbc565b949350505050565b804710156128a75760405162461bcd60e51b815260206004820152601d60248201527f416464726573733a20696e73756666696369656e742062616c616e63650000006044820152606401610c48565b6000826001600160a01b03168260405160006040518083038185875af1925050503d80600081146128f4576040519150601f19603f3d011682016040523d82523d6000602084013e6128f9565b606091505b5050905080610ee55760405162461bcd60e51b815260206004820152603a60248201527f416464726573733a20756e61626c6520746f2073656e642076616c75652c207260448201527f6563697069656e74206d617920686176652072657665727465640000000000006064820152608401610c48565b6000818152600360205260408120546001600160a01b03166129fa5760405162461bcd60e51b815260206004820152602c60248201527f4552433732313a206f70657261746f7220717565727920666f72206e6f6e657860448201527f697374656e7420746f6b656e00000000000000000000000000000000000000006064820152608401610c48565b6000612a0583611976565b9050806001600160a01b0316846001600160a01b03161480612a405750836001600160a01b0316612a3584610d12565b6001600160a01b0316145b8061284f57506001600160a01b0380821660009081526006602090815260408083209388168352929052205460ff16949350505050565b826001600160a01b0316612a8a82611976565b6001600160a01b031614612b065760405162461bcd60e51b815260206004820152602960248201527f4552433732313a207472616e73666572206f6620746f6b656e2074686174206960448201527f73206e6f74206f776e00000000000000000000000000000000000000000000006064820152608401610c48565b6001600160a01b038216612b815760405162461bcd60e51b8152602060048201526024808201527f4552433732313a207472616e7366657220746f20746865207a65726f2061646460448201527f72657373000000000000000000000000000000000000000000000000000000006064820152608401610c48565b612b8c600082612796565b6001600160a01b0383166000908152600460205260408120805460019290612bb5908490613cbc565b90915550506001600160a01b0382166000908152600460205260408120805460019290612be3908490613cd3565b9091555050600081815260036020526040808220805473ffffffffffffffffffffffffffffffffffffffff19166001600160a01b0386811691821790925591518493918716917fddf252ad1be2c89b69c2b068fc378daa952ba7f163c4a11628f55a4df523b3ef91a4505050565b6119058282604051806020016040528060008152506130d2565b6113538161315b565b604080516001600160a01b038416602482015260448082018490528251808303909101815260649091019091526020810180517bffffffffffffffffffffffffffffffffffffffffffffffffffffffff167fa9059cbb00000000000000000000000000000000000000000000000000000000179052610ee590849061319b565b600080546001600160a01b0383811673ffffffffffffffffffffffffffffffffffffffff19831681178455604051919092169283917f8be0079c531659141344cd1fd0a4f28419497f9722a3daafe3b4186f6b6457e09190a35050565b60008060018484604001518560000151866020015160405160008152602001604052604051612d9c949392919093845260ff9290921660208401526040830152606082015260800190565b6020604051602081039080840390855afa158015612dbe573d6000803e3d6000fd5b5050604051601f1901519150506001600160a01b038116612e215760405162461bcd60e51b815260206004820152601860248201527f45434453413a20696e76616c6964207369676e617475726500000000000000006044820152606401610c48565b601b546001600160a01b039081169116149392505050565b816001600160a01b0316836001600160a01b03161415612e9b5760405162461bcd60e51b815260206004820152601960248201527f4552433732313a20617070726f766520746f2063616c6c6572000000000000006044820152606401610c48565b6001600160a01b03838116600081815260066020908152604080832094871680845294825291829020805460ff191686151590811790915591519182527f17307eab39ab6107e8899845ad3d59bd9653f200f220920489ca2b5937696c31910160405180910390a3505050565b612f13848484612a77565b612f1f84848484613280565b6121a85760405162461bcd60e51b815260206004820152603260248201527f4552433732313a207472616e7366657220746f206e6f6e20455243373231526560448201527f63656976657220696d706c656d656e74657200000000000000000000000000006064820152608401610c48565b606060178054610c8f90613c6b565b606081612fe057505060408051808201909152600181527f3000000000000000000000000000000000000000000000000000000000000000602082015290565b8160005b811561300a5780612ff481613d0a565b91506130039050600a83613e2e565b9150612fe4565b60008167ffffffffffffffff81111561302557613025613996565b6040519080825280601f01601f19166020018201604052801561304f576020820181803683370190505b5090505b841561284f57613064600183613cbc565b9150613071600a86613e42565b61307c906030613cd3565b60f81b81838151811061309157613091613d3e565b60200101907effffffffffffffffffffffffffffffffffffffffffffffffffffffffffffff1916908160001a9053506130cb600a86613e2e565b9450613053565b6130dc838361341e565b6130e96000848484613280565b610ee55760405162461bcd60e51b815260206004820152603260248201527f4552433732313a207472616e7366657220746f206e6f6e20455243373231526560448201527f63656976657220696d706c656d656e74657200000000000000000000000000006064820152608401610c48565b6131648161356d565b6000818152600760205260409020805461317d90613c6b565b159050611353576000818152600760205260408120611353916137a4565b60006131f0826040518060400160405280602081526020017f5361666545524332303a206c6f772d6c6576656c2063616c6c206661696c6564815250856001600160a01b03166136159092919063ffffffff16565b805190915015610ee5578080602001905181019061320e9190613e56565b610ee55760405162461bcd60e51b815260206004820152602a60248201527f5361666545524332303a204552433230206f7065726174696f6e20646964206e60448201527f6f742073756363656564000000000000000000000000000000000000000000006064820152608401610c48565b60006001600160a01b0384163b15613413576040517f150b7a020000000000000000000000000000000000000000000000000000000081526001600160a01b0385169063150b7a02906132dd903390899088908890600401613e73565b6020604051808303816000875af1925050508015613318575060408051601f3d908101601f1916820190925261331591810190613eaf565b60015b6133c8573d808015613346576040519150601f19603f3d011682016040523d82523d6000602084013e61334b565b606091505b5080516133c05760405162461bcd60e51b815260206004820152603260248201527f4552433732313a207472616e7366657220746f206e6f6e20455243373231526560448201527f63656976657220696d706c656d656e74657200000000000000000000000000006064820152608401610c48565b805181602001fd5b7fffffffff00000000000000000000000000000000000000000000000000000000167f150b7a020000000000000000000000000000000000000000000000000000000014905061284f565b506001949350505050565b6001600160a01b0382166134745760405162461bcd60e51b815260206004820181905260248201527f4552433732313a206d696e7420746f20746865207a65726f20616464726573736044820152606401610c48565b6000818152600360205260409020546001600160a01b0316156134d95760405162461bcd60e51b815260206004820152601c60248201527f4552433732313a20746f6b656e20616c7265616479206d696e746564000000006044820152606401610c48565b6001600160a01b0382166000908152600460205260408120805460019290613502908490613cd3565b9091555050600081815260036020526040808220805473ffffffffffffffffffffffffffffffffffffffff19166001600160a01b03861690811790915590518392907fddf252ad1be2c89b69c2b068fc378daa952ba7f163c4a11628f55a4df523b3ef908290a45050565b600061357882611976565b9050613585600083612796565b6001600160a01b03811660009081526004602052604081208054600192906135ae908490613cbc565b9091555050600082815260036020526040808220805473ffffffffffffffffffffffffffffffffffffffff19169055518391906001600160a01b038416907fddf252ad1be2c89b69c2b068fc378daa952ba7f163c4a11628f55a4df523b3ef908390a45050565b606061284f848460008585843b61366e5760405162461bcd60e51b815260206004820152601d60248201527f416464726573733a2063616c6c20746f206e6f6e2d636f6e74726163740000006044820152606401610c48565b600080866001600160a01b0316858760405161368a9190613ecc565b60006040518083038185875af1925050503d80600081146136c7576040519150601f19603f3d011682016040523d82523d6000602084013e6136cc565b606091505b50915091506136dc8282866136e7565b979650505050505050565b606083156136f65750816123ca565b8251156137065782518084602001fd5b8160405162461bcd60e51b8152600401610c4891906138c4565b82805461372c90613c6b565b90600052602060002090601f01602090048101928261374e5760008555613794565b82601f1061376757805160ff1916838001178555613794565b82800160010185558215613794579182015b82811115613794578251825591602001919060010190613779565b506137a09291506137da565b5090565b5080546137b090613c6b565b6000825580601f106137c0575050565b601f01602090049060005260206000209081019061135391905b5b808211156137a057600081556001016137db565b7fffffffff000000000000000000000000000000000000000000000000000000008116811461135357600080fd5b60006020828403121561382f57600080fd5b81356123ca816137ef565b6001600160a01b038116811461135357600080fd5b60006020828403121561386157600080fd5b81356123ca8161383a565b60005b8381101561388757818101518382015260200161386f565b838111156121a85750506000910152565b600081518084526138b081602086016020860161386c565b601f01601f19169290920160200192915050565b6020815260006123ca6020830184613898565b6000602082840312156138e957600080fd5b5035919050565b6000806040838503121561390357600080fd5b823561390e8161383a565b946020939093013593505050565b60008060006060848603121561393157600080fd5b833561393c8161383a565b9250602084013561394c8161383a565b929592945050506040919091013590565b6000806040838503121561397057600080fd5b823561397b8161383a565b9150602083013561398b8161383a565b809150509250929050565b634e487b7160e01b600052604160045260246000fd5b600067ffffffffffffffff808411156139c7576139c7613996565b604051601f8501601f19908116603f011681019082821181831017156139ef576139ef613996565b81604052809350858152868686011115613a0857600080fd5b858560208301376000602087830101525050509392505050565b600060208284031215613a3457600080fd5b813567ffffffffffffffff811115613a4b57600080fd5b8201601f81018413613a5c57600080fd5b61284f848235602084016139ac565b803560ff81168114613a7c57600080fd5b919050565b600080600083850360a0811215613a9757600080fd5b613aa085613a6b565b9350613aae60208601613a6b565b925060607fffffffffffffffffffffffffffffffffffffffffffffffffffffffffffffffc082011215613ae057600080fd5b506040516060810181811067ffffffffffffffff82111715613b0457613b04613996565b6040908152850135815260608501356020820152613b2460808601613a6b565b6040820152809150509250925092565b801515811461135357600080fd5b60008060408385031215613b5557600080fd5b8235613b608161383a565b9150602083013561398b81613b34565b60008060008060808587031215613b8657600080fd5b8435613b918161383a565b93506020850135613ba18161383a565b925060408501359150606085013567ffffffffffffffff811115613bc457600080fd5b8501601f81018713613bd557600080fd5b613be4878235602084016139ac565b91505092959194509250565b600060208284031215613c0257600080fd5b81356123ca81613b34565b60008060008060008060c08789031215613c2657600080fd5b863595506020870135945060408701359350606087013592506080870135613c4d81613b34565b915060a0870135613c5d81613b34565b809150509295509295509295565b600181811c90821680613c7f57607f821691505b60208210811415613ca057634e487b7160e01b600052602260045260246000fd5b50919050565b634e487b7160e01b600052601160045260246000fd5b600082821015613cce57613cce613ca6565b500390565b60008219821115613ce657613ce6613ca6565b500190565b6000816000190483118215151615613d0557613d05613ca6565b500290565b6000600019821415613d1e57613d1e613ca6565b5060010190565b600060208284031215613d3757600080fd5b5051919050565b634e487b7160e01b600052603260045260246000fd5b600084516020613d678285838a0161386c565b855191840191613d7a8184848a0161386c565b8554920191600090600181811c9080831680613d9757607f831692505b858310811415613db557634e487b7160e01b85526022600452602485fd5b808015613dc95760018114613dda57613e07565b60ff19851688528388019550613e07565b60008b81526020902060005b85811015613dff5781548a820152908401908801613de6565b505083880195505b50939b9a5050505050505050505050565b634e487b7160e01b600052601260045260246000fd5b600082613e3d57613e3d613e18565b500490565b600082613e5157613e51613e18565b500690565b600060208284031215613e6857600080fd5b81516123ca81613b34565b60006001600160a01b03808716835280861660208401525083604083015260806060830152613ea56080830184613898565b9695505050505050565b600060208284031215613ec157600080fd5b81516123ca816137ef565b60008251613ede81846020870161386c565b919091019291505056fea2646970667358221220581962f2bd0ea2111d25b49fe2b511bf419ad7c538e68faa685bfebda1a9f8a364736f6c634300080b00334552433732313a207472616e7366657220746f206e6f6e204552433732315265",
  "linkReferences": {},
  "deployedLinkReferences": {}
}